{
  "contractName": "ERC20TokenFaucet",
  "abi": [
    {
      "constant": true,
      "inputs": [],
      "name": "name",
      "outputs": [
        {
          "name": "",
          "type": "string"
        }
      ],
      "payable": false,
      "type": "function"
    },
    {
      "constant": false,
      "inputs": [
        {
          "name": "_spender",
          "type": "address"
        },
        {
          "name": "_value",
          "type": "uint256"
        }
      ],
      "name": "approve",
      "outputs": [
        {
          "name": "success",
          "type": "bool"
        }
      ],
      "payable": false,
      "type": "function"
    },
    {
      "constant": true,
      "inputs": [],
      "name": "totalSupply",
      "outputs": [
        {
          "name": "",
          "type": "uint256"
        }
      ],
      "payable": false,
      "type": "function"
    },
    {
      "constant": false,
      "inputs": [
        {
          "name": "_from",
          "type": "address"
        },
        {
          "name": "_to",
          "type": "address"
        },
        {
          "name": "_value",
          "type": "uint256"
        }
      ],
      "name": "transferFrom",
      "outputs": [
        {
          "name": "success",
          "type": "bool"
        }
      ],
      "payable": false,
      "type": "function"
    },
    {
      "constant": true,
      "inputs": [],
      "name": "decimals",
      "outputs": [
        {
          "name": "",
          "type": "uint8"
        }
      ],
      "payable": false,
      "type": "function"
    },
    {
      "constant": true,
      "inputs": [
        {
          "name": "_owner",
          "type": "address"
        }
      ],
      "name": "balanceOf",
      "outputs": [
        {
          "name": "balance",
          "type": "uint256"
        }
      ],
      "payable": false,
      "type": "function"
    },
    {
      "constant": true,
      "inputs": [],
      "name": "symbol",
      "outputs": [
        {
          "name": "",
          "type": "string"
        }
      ],
      "payable": false,
      "type": "function"
    },
    {
      "constant": false,
      "inputs": [
        {
          "name": "_to",
          "type": "address"
        },
        {
          "name": "_value",
          "type": "uint256"
        }
      ],
      "name": "transfer",
      "outputs": [
        {
          "name": "success",
          "type": "bool"
        }
      ],
      "payable": false,
      "type": "function"
    },
    {
      "constant": false,
      "inputs": [
        {
          "name": "_amount",
          "type": "uint256"
        }
      ],
      "name": "getTokens",
      "outputs": [],
      "payable": false,
      "type": "function"
    },
    {
      "constant": true,
      "inputs": [
        {
          "name": "_owner",
          "type": "address"
        },
        {
          "name": "_spender",
          "type": "address"
        }
      ],
      "name": "allowance",
      "outputs": [
        {
          "name": "remaining",
          "type": "uint256"
        }
      ],
      "payable": false,
      "type": "function"
    },
    {
      "anonymous": false,
      "inputs": [
        {
          "indexed": true,
          "name": "_from",
          "type": "address"
        },
        {
          "indexed": true,
          "name": "_to",
          "type": "address"
        },
        {
          "indexed": false,
          "name": "_value",
          "type": "uint256"
        }
      ],
      "name": "Transfer",
      "type": "event"
    },
    {
      "anonymous": false,
      "inputs": [
        {
          "indexed": true,
          "name": "_owner",
          "type": "address"
        },
        {
          "indexed": true,
          "name": "_spender",
          "type": "address"
        },
        {
          "indexed": false,
          "name": "_value",
          "type": "uint256"
        }
      ],
      "name": "Approval",
      "type": "event"
    }
  ],
  "bytecode": "0x6060604052620f424060005560408051908101604052601081527f506f6c796d617468204e6574776f726b00000000000000000000000000000000602082015260019080516100529291602001906100b8565b506002805460ff1916601217905560408051908101604052600481527f504f4c5900000000000000000000000000000000000000000000000000000000602082015260039080516100a79291602001906100b8565b5034156100b357600080fd5b610158565b828054600181600116156101000203166002900490600052602060002090601f016020900481019282601f106100f957805160ff1916838001178555610126565b82800160010185558215610126579182015b8281111561012657825182559160200191906001019061010b565b5b50610133929150610137565b5090565b61015591905b80821115610133576000815560010161013d565b5090565b90565b610727806101676000396000f300606060405236156100a15763ffffffff7c010000000000000000000000000000000000000000000000000000000060003504166306fdde0381146100a6578063095ea7b31461013157806318160ddd1461016757806323b872dd1461018c578063313ce567146101c857806370a08231146101f157806395d89b4114610222578063a9059cbb146102ad578063d3c9cc26146102e3578063dd62ed3e146102fb575b600080fd5b34156100b157600080fd5b6100b9610332565b60405160208082528190810183818151815260200191508051906020019080838360005b838110156100f65780820151818401525b6020016100dd565b50505050905090810190601f1680156101235780820380516001836020036101000a031916815260200191505b509250505060405180910390f35b341561013c57600080fd5b610153600160a060020a03600435166024356103d0565b604051901515815260200160405180910390f35b341561017257600080fd5b61017a61043d565b60405190815260200160405180910390f35b341561019757600080fd5b610153600160a060020a0360043581169060243516604435610443565b604051901515815260200160405180910390f35b34156101d357600080fd5b6101db61054b565b60405160ff909116815260200160405180910390f35b34156101fc57600080fd5b61017a600160a060020a0360043516610554565b60405190815260200160405180910390f35b341561022d57600080fd5b6100b9610573565b60405160208082528190810183818151815260200191508051906020019080838360005b838110156100f65780820151818401525b6020016100dd565b50505050905090810190601f1680156101235780820380516001836020036101000a031916815260200191505b509250505060405180910390f35b34156102b857600080fd5b610153600160a060020a0360043516602435610611565b604051901515815260200160405180910390f35b34156102ee57600080fd5b6102f96004356106a6565b005b341561030657600080fd5b61017a600160a060020a03600435811690602435166106ce565b60405190815260200160405180910390f35b60018054600181600116156101000203166002900480601f0160208091040260200160405190810160405280929190818152602001828054600181600116156101000203166002900480156103c85780601f1061039d576101008083540402835291602001916103c8565b820191906000526020600020905b8154815290600101906020018083116103ab57829003601f168201915b505050505081565b600160a060020a03338116600081815260056020908152604080832094871680845294909152808220859055909291907f8c5be1e5ebec7d5bd14f71427d1e84f3dd0314c0f7b2291e5b200ac8c7c3b9259085905190815260200160405180910390a35060015b92915050565b60005481565b600160a060020a0380841660008181526005602090815260408083203390951683529381528382205492825260049052918220548390108015906104875750828110155b151561049257600080fd5b600160a060020a03808516600090815260046020526040808220805487019055918716815220805484900390556000198110156104f757600160a060020a03808616600090815260056020908152604080832033909416835292905220805484900390555b83600160a060020a031685600160a060020a03167fddf252ad1be2c89b69c2b068fc378daa952ba7f163c4a11628f55a4df523b3ef8560405190815260200160405180910390a3600191505b509392505050565b60025460ff1681565b600160a060020a0381166000908152600460205260409020545b919050565b60038054600181600116156101000203166002900480601f0160208091040260200160405190810160405280929190818152602001828054600181600116156101000203166002900480156103c85780601f1061039d576101008083540402835291602001916103c8565b820191906000526020600020905b8154815290600101906020018083116103ab57829003601f168201915b505050505081565b600160a060020a0333166000908152600460205260408120548290101561063757600080fd5b600160a060020a033381166000818152600460205260408082208054879003905592861680825290839020805486019055917fddf252ad1be2c89b69c2b068fc378daa952ba7f163c4a11628f55a4df523b3ef9085905190815260200160405180910390a35060015b92915050565b600160a060020a03331660009081526004602052604081208054830190558054820190555b50565b600160a060020a038083166000908152600560209081526040808320938516835292905220545b929150505600a165627a7a72305820380ff31c1733a67cbe651a8c75baeaa3bdac0ecb7defabc7646ebbb90bda3f0b0029",
  "source": "// An ERC20 token standard faucet\n// https://github.com/ethereum/EIPs/issues/20\npragma solidity ^0.4.15;\n\ncontract ERC20TokenFaucet {\n\n    uint256 public totalSupply = 1000000;\n    string public name = 'Polymath Network';\n    uint8 public decimals = 18;\n    string public symbol = 'POLY';\n\n    mapping (address => uint256) balances;\n    mapping (address => mapping (address => uint256)) allowed;\n\n    uint256 constant MAX_UINT256 = 2**256 - 1;\n\n    event Transfer(address indexed _from, address indexed _to, uint256 _value);\n    event Approval(address indexed _owner, address indexed _spender, uint256 _value);\n\n    /* New token faucet - Not part of the ERC20 standard */\n    function getTokens (uint256 _amount) {\n      balances[msg.sender] += _amount;\n      totalSupply += _amount;\n    }\n\n    /// @notice send `_value` token to `_to` from `msg.sender`\n    /// @param _to The address of the recipient\n    /// @param _value The amount of token to be transferred\n    /// @return Whether the transfer was successful or not\n    function transfer(address _to, uint256 _value) returns (bool success) {\n        //Default assumes totalSupply can't be over max (2^256 - 1).\n        //If your token leaves out totalSupply and can issue more tokens as time goes on, you need to check if it doesn't wrap.\n        //Replace the if with this one instead.\n        //require(balances[msg.sender] >= _value && balances[_to] + _value > balances[_to]);\n        require(balances[msg.sender] >= _value);\n        balances[msg.sender] -= _value;\n        balances[_to] += _value;\n        Transfer(msg.sender, _to, _value);\n        return true;\n    }\n\n    /// @notice send `_value` token to `_to` from `_from` on the condition it is approved by `_from`\n    /// @param _from The address of the sender\n    /// @param _to The address of the recipient\n    /// @param _value The amount of token to be transferred\n    /// @return Whether the transfer was successful or not\n    function transferFrom(address _from, address _to, uint256 _value) returns (bool success) {\n        //same as above. Replace this line with the following if you want to protect against wrapping uints.\n        //require(balances[_from] >= _value && allowed[_from][msg.sender] >= _value && balances[_to] + _value > balances[_to]);\n        uint256 allowance = allowed[_from][msg.sender];\n        require(balances[_from] >= _value && allowance >= _value);\n        balances[_to] += _value;\n        balances[_from] -= _value;\n        if (allowance < MAX_UINT256) {\n            allowed[_from][msg.sender] -= _value;\n        }\n        Transfer(_from, _to, _value);\n        return true;\n    }\n\n\n    /// @param _owner The address from which the balance will be retrieved\n    /// @return The balance\n    function balanceOf(address _owner) constant returns (uint256 balance) {\n        return balances[_owner];\n    }\n\n    /// @notice `msg.sender` approves `_spender` to spend `_value` tokens\n    /// @param _spender The address of the account able to transfer the tokens\n    /// @param _value The amount of tokens to be approved for transfer\n    /// @return Whether the approval was successful or not\n    function approve(address _spender, uint256 _value) returns (bool success) {\n        allowed[msg.sender][_spender] = _value;\n        Approval(msg.sender, _spender, _value);\n        return true;\n    }\n\n    /// @param _owner The address of the account owning tokens\n    /// @param _spender The address of the account able to transfer the tokens\n    /// @return Amount of remaining tokens allowed to spent\n    function allowance(address _owner, address _spender) constant returns (uint256 remaining) {\n      return allowed[_owner][_spender];\n    }\n}\n",
  "sourcePath": "/Users/everhusk/Ethereum/Polymath/Faucet/contracts/ERC20TokenFaucet.sol",
  "schemaVersion": "1.0.0",
  "updatedAt": "2017-10-19T04:54:18.975Z"
}